{
  "contractName": "CertificateIssuance",
  "abi": [
    {
      "inputs": [],
      "stateMutability": "nonpayable",
      "type": "constructor"
    },
    {
      "inputs": [
        {
          "internalType": "uint256",
          "name": "",
          "type": "uint256"
        }
      ],
      "name": "certificates",
      "outputs": [
        {
          "internalType": "uint256",
          "name": "id",
          "type": "uint256"
        },
        {
          "internalType": "string",
          "name": "registrationId",
          "type": "string"
        },
        {
          "internalType": "string",
          "name": "candidateName",
          "type": "string"
        },
        {
          "internalType": "string",
          "name": "courseName",
          "type": "string"
        },
        {
          "internalType": "string",
          "name": "ipfsHash",
          "type": "string"
        },
        {
          "internalType": "uint256",
          "name": "issuanceDate",
          "type": "uint256"
        }
      ],
      "stateMutability": "view",
      "type": "function"
    },
    {
      "inputs": [],
      "name": "currentCertificateId",
      "outputs": [
        {
          "internalType": "uint256",
          "name": "",
          "type": "uint256"
        }
      ],
      "stateMutability": "view",
      "type": "function"
    },
    {
      "inputs": [],
      "name": "owner",
      "outputs": [
        {
          "internalType": "address",
          "name": "",
          "type": "address"
        }
      ],
      "stateMutability": "view",
      "type": "function"
    },
    {
      "inputs": [
        {
          "internalType": "string",
          "name": "registrationId",
          "type": "string"
        },
        {
          "internalType": "string",
          "name": "candidateName",
          "type": "string"
        },
        {
          "internalType": "string",
          "name": "courseName",
          "type": "string"
        },
        {
          "internalType": "uint256[]",
          "name": "semMarks",
          "type": "uint256[]"
        },
        {
          "internalType": "string",
          "name": "ipfsHash",
          "type": "string"
        }
      ],
      "name": "issueCertificate",
      "outputs": [
        {
          "internalType": "uint256",
          "name": "",
          "type": "uint256"
        }
      ],
      "stateMutability": "nonpayable",
      "type": "function"
    },
    {
      "inputs": [
        {
          "internalType": "uint256",
          "name": "id",
          "type": "uint256"
        }
      ],
      "name": "verifyCertificate",
      "outputs": [
        {
          "internalType": "bool",
          "name": "",
          "type": "bool"
        }
      ],
      "stateMutability": "view",
      "type": "function"
    },
    {
      "inputs": [
        {
          "internalType": "uint256",
          "name": "regId",
          "type": "uint256"
        }
      ],
      "name": "verifyCertificateUsingReg",
      "outputs": [
        {
          "internalType": "bool",
          "name": "",
          "type": "bool"
        }
      ],
      "stateMutability": "view",
      "type": "function"
    },
    {
      "inputs": [
        {
          "internalType": "uint256",
          "name": "id",
          "type": "uint256"
        }
      ],
      "name": "revokeCertificate",
      "outputs": [
        {
          "internalType": "bool",
          "name": "",
          "type": "bool"
        }
      ],
      "stateMutability": "nonpayable",
      "type": "function"
    },
    {
      "inputs": [
        {
          "internalType": "uint256",
          "name": "id",
          "type": "uint256"
        }
      ],
      "name": "getIPFSHash",
      "outputs": [
        {
          "internalType": "string",
          "name": "",
          "type": "string"
        }
      ],
      "stateMutability": "view",
      "type": "function"
    }
  ],
  "bytecode": "0x6080604052600060025534801561001557600080fd5b5033600160006101000a81548173ffffffffffffffffffffffffffffffffffffffff021916908373ffffffffffffffffffffffffffffffffffffffff1602179055506117e4806100666000396000f3fe608060405234801561001057600080fd5b50600436106100875760003560e01c8063663b3e221161005b578063663b3e221461013a578063755cbe851461016f5780638545ef571461019f5780638da5cb5b146101cf57610087565b80622d081e1461008c57806306f5497e146100aa5780631692a942146100da57806340307d951461010a575b600080fd5b6100946101ed565b6040516100a19190610d19565b60405180910390f35b6100c460048036038101906100bf9190610d74565b6101f3565b6040516100d19190610dbc565b60405180910390f35b6100f460048036038101906100ef9190610d74565b6102d0565b6040516101019190610dbc565b60405180910390f35b610124600480360381019061011f9190610d74565b61055f565b6040516101319190610e67565b60405180910390f35b610154600480360381019061014f9190610d74565b610606565b60405161016696959493929190610e89565b60405180910390f35b61018960048036038101906101849190610d74565b610862565b6040516101969190610dbc565b60405180910390f35b6101b960048036038101906101b49190611103565b610af0565b6040516101c69190610d19565b60405180910390f35b6101d7610cda565b6040516101e4919061124b565b60405180910390f35b60025481565b6000600160009054906101000a900473ffffffffffffffffffffffffffffffffffffffff1673ffffffffffffffffffffffffffffffffffffffff163373ffffffffffffffffffffffffffffffffffffffff1614610285576040517f08c379a000000000000000000000000000000000000000000000000000000000815260040161027c906112d8565b60405180910390fd5b600080600084815260200190815260200160002060000154146102c657600080600084815260200190815260200160002060000181905550600190506102cb565b600090505b919050565b6000806000808481526020019081526020016000206040518060c00160405290816000820154815260200160018201805461030a90611327565b80601f016020809104026020016040519081016040528092919081815260200182805461033690611327565b80156103835780601f1061035857610100808354040283529160200191610383565b820191906000526020600020905b81548152906001019060200180831161036657829003601f168201915b5050505050815260200160028201805461039c90611327565b80601f01602080910402602001604051908101604052809291908181526020018280546103c890611327565b80156104155780601f106103ea57610100808354040283529160200191610415565b820191906000526020600020905b8154815290600101906020018083116103f857829003601f168201915b5050505050815260200160038201805461042e90611327565b80601f016020809104026020016040519081016040528092919081815260200182805461045a90611327565b80156104a75780601f1061047c576101008083540402835291602001916104a7565b820191906000526020600020905b81548152906001019060200180831161048a57829003601f168201915b505050505081526020016004820180546104c090611327565b80601f01602080910402602001604051908101604052809291908181526020018280546104ec90611327565b80156105395780601f1061050e57610100808354040283529160200191610539565b820191906000526020600020905b81548152906001019060200180831161051c57829003601f168201915b505050505081526020016005820154815250509050600081600001511415915050919050565b6060600080838152602001908152602001600020600401805461058190611327565b80601f01602080910402602001604051908101604052809291908181526020018280546105ad90611327565b80156105fa5780601f106105cf576101008083540402835291602001916105fa565b820191906000526020600020905b8154815290600101906020018083116105dd57829003601f168201915b50505050509050919050565b600060205280600052604060002060009150905080600001549080600101805461062f90611327565b80601f016020809104026020016040519081016040528092919081815260200182805461065b90611327565b80156106a85780601f1061067d576101008083540402835291602001916106a8565b820191906000526020600020905b81548152906001019060200180831161068b57829003601f168201915b5050505050908060020180546106bd90611327565b80601f01602080910402602001604051908101604052809291908181526020018280546106e990611327565b80156107365780601f1061070b57610100808354040283529160200191610736565b820191906000526020600020905b81548152906001019060200180831161071957829003601f168201915b50505050509080600301805461074b90611327565b80601f016020809104026020016040519081016040528092919081815260200182805461077790611327565b80156107c45780601f10610799576101008083540402835291602001916107c4565b820191906000526020600020905b8154815290600101906020018083116107a757829003601f168201915b5050505050908060040180546107d990611327565b80601f016020809104026020016040519081016040528092919081815260200182805461080590611327565b80156108525780601f1061082757610100808354040283529160200191610852565b820191906000526020600020905b81548152906001019060200180831161083557829003601f168201915b5050505050908060050154905086565b6000806000808481526020019081526020016000206040518060c00160405290816000820154815260200160018201805461089c90611327565b80601f01602080910402602001604051908101604052809291908181526020018280546108c890611327565b80156109155780601f106108ea57610100808354040283529160200191610915565b820191906000526020600020905b8154815290600101906020018083116108f857829003601f168201915b5050505050815260200160028201805461092e90611327565b80601f016020809104026020016040519081016040528092919081815260200182805461095a90611327565b80156109a75780601f1061097c576101008083540402835291602001916109a7565b820191906000526020600020905b81548152906001019060200180831161098a57829003601f168201915b505050505081526020016003820180546109c090611327565b80601f01602080910402602001604051908101604052809291908181526020018280546109ec90611327565b8015610a395780601f10610a0e57610100808354040283529160200191610a39565b820191906000526020600020905b815481529060010190602001808311610a1c57829003601f168201915b50505050508152602001600482018054610a5290611327565b80601f0160208091040260200160405190810160405280929190818152602001828054610a7e90611327565b8015610acb5780601f10610aa057610100808354040283529160200191610acb565b820191906000526020600020905b815481529060010190602001808311610aae57829003601f168201915b5050505050815260200160058201548152505090506000816000015111915050919050565b6000600160009054906101000a900473ffffffffffffffffffffffffffffffffffffffff1673ffffffffffffffffffffffffffffffffffffffff163373ffffffffffffffffffffffffffffffffffffffff1614610b82576040517f08c379a0000000000000000000000000000000000000000000000000000000008152600401610b79906113ca565b60405180910390fd5b60005b6003811015610bfe576021848281518110610ba357610ba26113ea565b5b602002602001015111610beb576040517f08c379a0000000000000000000000000000000000000000000000000000000008152600401610be290611465565b60405180910390fd5b8080610bf6906114b4565b915050610b85565b5060006040518060c0016040528060025481526020018881526020018781526020018681526020018481526020014281525090506001600254610c4191906114fc565b600281905550806000806002548152602001908152602001600020600082015181600001556020820151816001019081610c7b91906116dc565b506040820151816002019081610c9191906116dc565b506060820151816003019081610ca791906116dc565b506080820151816004019081610cbd91906116dc565b5060a0820151816005015590505060025491505095945050505050565b600160009054906101000a900473ffffffffffffffffffffffffffffffffffffffff1681565b6000819050919050565b610d1381610d00565b82525050565b6000602082019050610d2e6000830184610d0a565b92915050565b6000604051905090565b600080fd5b600080fd5b610d5181610d00565b8114610d5c57600080fd5b50565b600081359050610d6e81610d48565b92915050565b600060208284031215610d8a57610d89610d3e565b5b6000610d9884828501610d5f565b91505092915050565b60008115159050919050565b610db681610da1565b82525050565b6000602082019050610dd16000830184610dad565b92915050565b600081519050919050565b600082825260208201905092915050565b60005b83811015610e11578082015181840152602081019050610df6565b60008484015250505050565b6000601f19601f8301169050919050565b6000610e3982610dd7565b610e438185610de2565b9350610e53818560208601610df3565b610e5c81610e1d565b840191505092915050565b60006020820190508181036000830152610e818184610e2e565b905092915050565b600060c082019050610e9e6000830189610d0a565b8181036020830152610eb08188610e2e565b90508181036040830152610ec48187610e2e565b90508181036060830152610ed88186610e2e565b90508181036080830152610eec8185610e2e565b9050610efb60a0830184610d0a565b979650505050505050565b600080fd5b600080fd5b7f4e487b7100000000000000000000000000000000000000000000000000000000600052604160045260246000fd5b610f4882610e1d565b810181811067ffffffffffffffff82111715610f6757610f66610f10565b5b80604052505050565b6000610f7a610d34565b9050610f868282610f3f565b919050565b600067ffffffffffffffff821115610fa657610fa5610f10565b5b610faf82610e1d565b9050602081019050919050565b82818337600083830152505050565b6000610fde610fd984610f8b565b610f70565b905082815260208101848484011115610ffa57610ff9610f0b565b5b611005848285610fbc565b509392505050565b600082601f83011261102257611021610f06565b5b8135611032848260208601610fcb565b91505092915050565b600067ffffffffffffffff82111561105657611055610f10565b5b602082029050602081019050919050565b600080fd5b600061107f61107a8461103b565b610f70565b905080838252602082019050602084028301858111156110a2576110a1611067565b5b835b818110156110cb57806110b78882610d5f565b8452602084019350506020810190506110a4565b5050509392505050565b600082601f8301126110ea576110e9610f06565b5b81356110fa84826020860161106c565b91505092915050565b600080600080600060a0868803121561111f5761111e610d3e565b5b600086013567ffffffffffffffff81111561113d5761113c610d43565b5b6111498882890161100d565b955050602086013567ffffffffffffffff81111561116a57611169610d43565b5b6111768882890161100d565b945050604086013567ffffffffffffffff81111561119757611196610d43565b5b6111a38882890161100d565b935050606086013567ffffffffffffffff8111156111c4576111c3610d43565b5b6111d0888289016110d5565b925050608086013567ffffffffffffffff8111156111f1576111f0610d43565b5b6111fd8882890161100d565b9150509295509295909350565b600073ffffffffffffffffffffffffffffffffffffffff82169050919050565b60006112358261120a565b9050919050565b6112458161122a565b82525050565b6000602082019050611260600083018461123c565b92915050565b7f4f6e6c792074686520636f6e7472616374206f776e65722063616e207265766f60008201527f6b652e0000000000000000000000000000000000000000000000000000000000602082015250565b60006112c2602383610de2565b91506112cd82611266565b604082019050919050565b600060208201905081810360008301526112f1816112b5565b9050919050565b7f4e487b7100000000000000000000000000000000000000000000000000000000600052602260045260246000fd5b6000600282049050600182168061133f57607f821691505b602082108103611352576113516112f8565b5b50919050565b7f4f6e6c792074686520636f6e7472616374206f776e65722063616e206973737560008201527f65206365727469666963617465732e0000000000000000000000000000000000602082015250565b60006113b4602f83610de2565b91506113bf82611358565b604082019050919050565b600060208201905081810360008301526113e3816113a7565b9050919050565b7f4e487b7100000000000000000000000000000000000000000000000000000000600052603260045260246000fd5b7f53656d6573746572206d61726b73206c6f772100000000000000000000000000600082015250565b600061144f601383610de2565b915061145a82611419565b602082019050919050565b6000602082019050818103600083015261147e81611442565b9050919050565b7f4e487b7100000000000000000000000000000000000000000000000000000000600052601160045260246000fd5b60006114bf82610d00565b91507fffffffffffffffffffffffffffffffffffffffffffffffffffffffffffffffff82036114f1576114f0611485565b5b600182019050919050565b600061150782610d00565b915061151283610d00565b925082820190508082111561152a57611529611485565b5b92915050565b60008190508160005260206000209050919050565b60006020601f8301049050919050565b600082821b905092915050565b6000600883026115927fffffffffffffffffffffffffffffffffffffffffffffffffffffffffffffffff82611555565b61159c8683611555565b95508019841693508086168417925050509392505050565b6000819050919050565b60006115d96115d46115cf84610d00565b6115b4565b610d00565b9050919050565b6000819050919050565b6115f3836115be565b6116076115ff826115e0565b848454611562565b825550505050565b600090565b61161c61160f565b6116278184846115ea565b505050565b5b8181101561164b57611640600082611614565b60018101905061162d565b5050565b601f8211156116905761166181611530565b61166a84611545565b81016020851015611679578190505b61168d61168585611545565b83018261162c565b50505b505050565b600082821c905092915050565b60006116b360001984600802611695565b1980831691505092915050565b60006116cc83836116a2565b9150826002028217905092915050565b6116e582610dd7565b67ffffffffffffffff8111156116fe576116fd610f10565b5b6117088254611327565b61171382828561164f565b600060209050601f8311600181146117465760008415611734578287015190505b61173e85826116c0565b8655506117a6565b601f19841661175486611530565b60005b8281101561177c57848901518255600182019150602085019450602081019050611757565b868310156117995784890151611795601f8916826116a2565b8355505b6001600288020188555050505b50505050505056fea2646970667358221220974c50bb5693d1a62bbff64c42081947e617e12834de87fd8b1d76c8388b569464736f6c63430008110033",
  "immutableReferences": {},
  "source": "// SPDX-License-Identifier: GPL-3.0\npragma solidity >=0.4.0;\n\ncontract CertificateIssuance {\n    // This mapping stores the certificates that have been issued.\n    // Each uint256 (id) is linked to a struct (Certificate).\n    mapping(uint256 => Certificate) public certificates;\n\n    // The struct represents a certificate.\n    struct Certificate {\n        // string institute;\n        uint256 id;\n        string registrationId;\n        string candidateName;\n        string courseName;\n        string ipfsHash;\n        uint256 issuanceDate;\n    }\n\n    address public owner;\n    uint256 public currentCertificateId = 0;\n\n    // Constructor function, which is called only once i.e when the contract is deployed.\n    // It sets the owner variable to the address that deployed the contract.\n    constructor() public {\n        owner = msg.sender;\n    }\n\n    // This function is called to issue a new certificate.\n    // It takes the name of the candidate receiving the certificate, and the name of the certificate.\n    function issueCertificate(\n        string memory registrationId,\n        string memory candidateName,\n        string memory courseName,\n        uint256[] memory semMarks,\n        string memory ipfsHash\n    ) public returns (uint256) {\n        require(\n            msg.sender == owner,\n            \"Only the contract owner can issue certificates.\"\n        );\n\n        for (uint256 i = 0; i < 3; i++) {\n            require(semMarks[i] > 33, \"Semester marks low!\");\n        }\n\n        // Create a new certificate struct.\n        Certificate memory cert = Certificate({\n            id: currentCertificateId,\n            registrationId: registrationId,\n            candidateName: candidateName,\n            courseName: courseName,\n            ipfsHash: ipfsHash,\n            issuanceDate: block.timestamp\n        });\n\n        // Store the certificate in the mapping \"certificates\".\n        currentCertificateId = currentCertificateId + 1;\n        certificates[currentCertificateId] = cert;\n\n        // Increment current certificate number.\n\n        return currentCertificateId;\n    }\n\n    // This function is called to verify a certificate.\n    // It takes the ID of the certificate and returns true if the certificate exists,\n    // and false if it does not exist.\n    function verifyCertificate(uint256 id) public view returns (bool) {\n        // Only the contract owner ( or the institute) that issued the certificate\n        // can verify the certificate.\n        // require(\n        //     msg.sender == owner || certificates[id].institute == msg.sender,\n        //     \"Only the contract owner or the institute that issued the certificate can verify it.\"\n        // );\n\n        // Look up the certificate by its ID in the mapping.\n        Certificate memory certificate = certificates[id];\n\n        // Return true if the certificate exists, and false if it does not.\n        return certificate.id != 0;\n    }\n\n    function verifyCertificateUsingReg(uint256 regId)\n        public\n        view\n        returns (bool)\n    {\n        Certificate memory certificate = certificates[regId];\n\n        // Return true if the certificate exists, and false if it does not.\n        return (certificate.id > 0);\n    }\n\n    // This function is called to revoke a certificate.\n    // It returns true if the operation was sucessful.\n    function revokeCertificate(uint256 id) public returns (bool) {\n        require(msg.sender == owner, \"Only the contract owner can revoke.\");\n\n        //Checks if that certificate exists\n        if (certificates[id].id != 0) {\n            //Set that certificate's id to zero so the verify function will also return false.\n            certificates[id].id = 0;\n            return true;\n        } else return false;\n    }\n\n    function getIPFSHash(uint256 id) public view returns (string memory) {\n        return certificates[id].ipfsHash;\n    }\n}\n\n//TODO- each certificate also has a CID hash through which we can visit IPFS to see the certificate.\n\n//\n",
  "sourcePath": "C:\\Users\\FJ\\Desktop\\SmartCerts\\contracts\\CertificateIssuance.sol",
  "compiler": {
    "name": "solc",
    "version": "0.8.17+commit.8df45f5f.Emscripten.clang"
  },
  "schemaVersion": "3.4.11",
  "updatedAt": "2023-01-03T13:08:06.762Z",
  "devdoc": {
    "kind": "dev",
    "methods": {},
    "version": 1
  },
  "userdoc": {
    "kind": "user",
    "methods": {},
    "version": 1
  }
}